{
  "contractName": "BJCToken",
  "abi": [
    {
      "constant": true,
      "inputs": [],
      "name": "name",
      "outputs": [
        {
          "name": "",
          "type": "string"
        }
      ],
      "payable": false,
      "stateMutability": "view",
      "type": "function"
    },
    {
      "constant": true,
      "inputs": [],
      "name": "decimals",
      "outputs": [
        {
          "name": "",
          "type": "uint8"
        }
      ],
      "payable": false,
      "stateMutability": "view",
      "type": "function"
    },
    {
      "constant": true,
      "inputs": [],
      "name": "_totalSupply",
      "outputs": [
        {
          "name": "",
          "type": "uint256"
        }
      ],
      "payable": false,
      "stateMutability": "view",
      "type": "function"
    },
    {
      "constant": false,
      "inputs": [],
      "name": "acceptOwnership",
      "outputs": [],
      "payable": false,
      "stateMutability": "nonpayable",
      "type": "function"
    },
    {
      "constant": true,
      "inputs": [],
      "name": "owner",
      "outputs": [
        {
          "name": "",
          "type": "address"
        }
      ],
      "payable": false,
      "stateMutability": "view",
      "type": "function"
    },
    {
      "constant": true,
      "inputs": [],
      "name": "symbol",
      "outputs": [
        {
          "name": "",
          "type": "string"
        }
      ],
      "payable": false,
      "stateMutability": "view",
      "type": "function"
    },
    {
      "constant": true,
      "inputs": [
        {
          "name": "a",
          "type": "uint256"
        },
        {
          "name": "b",
          "type": "uint256"
        }
      ],
      "name": "safeSub",
      "outputs": [
        {
          "name": "c",
          "type": "uint256"
        }
      ],
      "payable": false,
      "stateMutability": "pure",
      "type": "function"
    },
    {
      "constant": true,
      "inputs": [
        {
          "name": "a",
          "type": "uint256"
        },
        {
          "name": "b",
          "type": "uint256"
        }
      ],
      "name": "safeDiv",
      "outputs": [
        {
          "name": "c",
          "type": "uint256"
        }
      ],
      "payable": false,
      "stateMutability": "pure",
      "type": "function"
    },
    {
      "constant": true,
      "inputs": [
        {
          "name": "a",
          "type": "uint256"
        },
        {
          "name": "b",
          "type": "uint256"
        }
      ],
      "name": "safeMul",
      "outputs": [
        {
          "name": "c",
          "type": "uint256"
        }
      ],
      "payable": false,
      "stateMutability": "pure",
      "type": "function"
    },
    {
      "constant": true,
      "inputs": [],
      "name": "newOwner",
      "outputs": [
        {
          "name": "",
          "type": "address"
        }
      ],
      "payable": false,
      "stateMutability": "view",
      "type": "function"
    },
    {
      "constant": true,
      "inputs": [
        {
          "name": "a",
          "type": "uint256"
        },
        {
          "name": "b",
          "type": "uint256"
        }
      ],
      "name": "safeAdd",
      "outputs": [
        {
          "name": "c",
          "type": "uint256"
        }
      ],
      "payable": false,
      "stateMutability": "pure",
      "type": "function"
    },
    {
      "constant": false,
      "inputs": [
        {
          "name": "_newOwner",
          "type": "address"
        }
      ],
      "name": "transferOwnership",
      "outputs": [],
      "payable": false,
      "stateMutability": "nonpayable",
      "type": "function"
    },
    {
      "inputs": [],
      "payable": true,
      "stateMutability": "payable",
      "type": "constructor"
    },
    {
      "payable": true,
      "stateMutability": "payable",
      "type": "fallback"
    },
    {
      "anonymous": false,
      "inputs": [
        {
          "indexed": true,
          "name": "_from",
          "type": "address"
        },
        {
          "indexed": true,
          "name": "_to",
          "type": "address"
        }
      ],
      "name": "OwnershipTransferred",
      "type": "event"
    },
    {
      "anonymous": false,
      "inputs": [
        {
          "indexed": true,
          "name": "from",
          "type": "address"
        },
        {
          "indexed": true,
          "name": "to",
          "type": "address"
        },
        {
          "indexed": false,
          "name": "tokens",
          "type": "uint256"
        }
      ],
      "name": "Transfer",
      "type": "event"
    },
    {
      "anonymous": false,
      "inputs": [
        {
          "indexed": true,
          "name": "tokenOwner",
          "type": "address"
        },
        {
          "indexed": true,
          "name": "spender",
          "type": "address"
        },
        {
          "indexed": false,
          "name": "tokens",
          "type": "uint256"
        }
      ],
      "name": "Approval",
      "type": "event"
    },
    {
      "constant": true,
      "inputs": [],
      "name": "totalSupply",
      "outputs": [
        {
          "name": "",
          "type": "uint256"
        }
      ],
      "payable": false,
      "stateMutability": "view",
      "type": "function"
    },
    {
      "constant": true,
      "inputs": [
        {
          "name": "tokenOwner",
          "type": "address"
        }
      ],
      "name": "balanceOf",
      "outputs": [
        {
          "name": "balance",
          "type": "uint256"
        }
      ],
      "payable": false,
      "stateMutability": "view",
      "type": "function"
    },
    {
      "constant": false,
      "inputs": [
        {
          "name": "to",
          "type": "address"
        },
        {
          "name": "tokens",
          "type": "uint256"
        }
      ],
      "name": "transfer",
      "outputs": [
        {
          "name": "success",
          "type": "bool"
        }
      ],
      "payable": true,
      "stateMutability": "payable",
      "type": "function"
    },
    {
      "constant": false,
      "inputs": [
        {
          "name": "spender",
          "type": "address"
        },
        {
          "name": "tokens",
          "type": "uint256"
        }
      ],
      "name": "approve",
      "outputs": [
        {
          "name": "success",
          "type": "bool"
        }
      ],
      "payable": false,
      "stateMutability": "nonpayable",
      "type": "function"
    },
    {
      "constant": false,
      "inputs": [
        {
          "name": "from",
          "type": "address"
        },
        {
          "name": "to",
          "type": "address"
        },
        {
          "name": "tokens",
          "type": "uint256"
        }
      ],
      "name": "transferFrom",
      "outputs": [
        {
          "name": "success",
          "type": "bool"
        }
      ],
      "payable": true,
      "stateMutability": "payable",
      "type": "function"
    },
    {
      "constant": true,
      "inputs": [
        {
          "name": "tokenOwner",
          "type": "address"
        },
        {
          "name": "spender",
          "type": "address"
        }
      ],
      "name": "allowance",
      "outputs": [
        {
          "name": "remaining",
          "type": "uint256"
        }
      ],
      "payable": false,
      "stateMutability": "view",
      "type": "function"
    },
    {
      "constant": false,
      "inputs": [
        {
          "name": "spender",
          "type": "address"
        },
        {
          "name": "tokens",
          "type": "uint256"
        },
        {
          "name": "data",
          "type": "bytes"
        }
      ],
      "name": "approveAndCall",
      "outputs": [
        {
          "name": "success",
          "type": "bool"
        }
      ],
      "payable": false,
      "stateMutability": "nonpayable",
      "type": "function"
    },
    {
      "constant": false,
      "inputs": [
        {
          "name": "tokenAddress",
          "type": "address"
        },
        {
          "name": "tokens",
          "type": "uint256"
        }
      ],
      "name": "transferAnyERC20Token",
      "outputs": [
        {
          "name": "success",
          "type": "bool"
        }
      ],
      "payable": false,
      "stateMutability": "nonpayable",
      "type": "function"
    }
  ],
  "bytecode": "0x6080604052336000806101000a81548173ffffffffffffffffffffffffffffffffffffffff021916908373ffffffffffffffffffffffffffffffffffffffff1602179055506040518060400160405280600581526020017f424a43544b0000000000000000000000000000000000000000000000000000008152506002908051906020019062000091929190620001ba565b506040518060400160405280600881526020017f424a43546f6b656e00000000000000000000000000000000000000000000000081525060039080519060200190620000df929190620001ba565b506000600460006101000a81548160ff021916908360ff160217905550620f4240600581905550600554600660003373ffffffffffffffffffffffffffffffffffffffff1673ffffffffffffffffffffffffffffffffffffffff168152602001908152602001600020819055503373ffffffffffffffffffffffffffffffffffffffff16600073ffffffffffffffffffffffffffffffffffffffff167fddf252ad1be2c89b69c2b068fc378daa952ba7f163c4a11628f55a4df523b3ef6005546040518082815260200191505060405180910390a362000269565b828054600181600116156101000203166002900490600052602060002090601f016020900481019282601f10620001fd57805160ff19168380011785556200022e565b828001600101855582156200022e579182015b828111156200022d57825182559160200191906001019062000210565b5b5090506200023d919062000241565b5090565b6200026691905b808211156200026257600081600090555060010162000248565b5090565b90565b61173180620002796000396000f3fe60806040526004361061011f5760003560e01c8063a293d1e8116100a0578063d4ee1d9011610064578063d4ee1d9014610712578063dc39d06d14610769578063dd62ed3e146107dc578063e6cb901314610861578063f2fde38b146108ba5761011f565b8063a293d1e814610497578063a9059cbb146104f0578063b5931f7c14610556578063cae9ca51146105af578063d05c78da146106b95761011f565b80633eaaf86b116100e75780633eaaf86b1461030957806370a082311461033457806379ba5097146103995780638da5cb5b146103b057806395d89b41146104075761011f565b806306fdde0314610124578063095ea7b3146101b457806318160ddd1461022757806323b872dd14610252578063313ce567146102d8575b600080fd5b34801561013057600080fd5b5061013961090b565b6040518080602001828103825283818151815260200191508051906020019080838360005b8381101561017957808201518184015260208101905061015e565b50505050905090810190601f1680156101a65780820380516001836020036101000a031916815260200191505b509250505060405180910390f35b3480156101c057600080fd5b5061020d600480360360408110156101d757600080fd5b81019080803573ffffffffffffffffffffffffffffffffffffffff169060200190929190803590602001909291905050506109a9565b604051808215151515815260200191505060405180910390f35b34801561023357600080fd5b5061023c610a9b565b6040518082815260200191505060405180910390f35b6102be6004803603606081101561026857600080fd5b81019080803573ffffffffffffffffffffffffffffffffffffffff169060200190929190803573ffffffffffffffffffffffffffffffffffffffff16906020019092919080359060200190929190505050610ae6565b604051808215151515815260200191505060405180910390f35b3480156102e457600080fd5b506102ed610d76565b604051808260ff1660ff16815260200191505060405180910390f35b34801561031557600080fd5b5061031e610d89565b6040518082815260200191505060405180910390f35b34801561034057600080fd5b506103836004803603602081101561035757600080fd5b81019080803573ffffffffffffffffffffffffffffffffffffffff169060200190929190505050610d8f565b6040518082815260200191505060405180910390f35b3480156103a557600080fd5b506103ae610dd8565b005b3480156103bc57600080fd5b506103c5610f75565b604051808273ffffffffffffffffffffffffffffffffffffffff1673ffffffffffffffffffffffffffffffffffffffff16815260200191505060405180910390f35b34801561041357600080fd5b5061041c610f9a565b6040518080602001828103825283818151815260200191508051906020019080838360005b8381101561045c578082015181840152602081019050610441565b50505050905090810190601f1680156104895780820380516001836020036101000a031916815260200191505b509250505060405180910390f35b3480156104a357600080fd5b506104da600480360360408110156104ba57600080fd5b810190808035906020019092919080359060200190929190505050611038565b6040518082815260200191505060405180910390f35b61053c6004803603604081101561050657600080fd5b81019080803573ffffffffffffffffffffffffffffffffffffffff16906020019092919080359060200190929190505050611052565b604051808215151515815260200191505060405180910390f35b34801561056257600080fd5b506105996004803603604081101561057957600080fd5b8101908080359060200190929190803590602001909291905050506111db565b6040518082815260200191505060405180910390f35b3480156105bb57600080fd5b5061069f600480360360608110156105d257600080fd5b81019080803573ffffffffffffffffffffffffffffffffffffffff169060200190929190803590602001909291908035906020019064010000000081111561061957600080fd5b82018360208201111561062b57600080fd5b8035906020019184600183028401116401000000008311171561064d57600080fd5b91908080601f016020809104026020016040519081016040528093929190818152602001838380828437600081840152601f19601f8201169050808301925050505050505091929192905050506111fb565b604051808215151515815260200191505060405180910390f35b3480156106c557600080fd5b506106fc600480360360408110156106dc57600080fd5b81019080803590602001909291908035906020019092919050505061142e565b6040518082815260200191505060405180910390f35b34801561071e57600080fd5b5061072761145b565b604051808273ffffffffffffffffffffffffffffffffffffffff1673ffffffffffffffffffffffffffffffffffffffff16815260200191505060405180910390f35b34801561077557600080fd5b506107c26004803603604081101561078c57600080fd5b81019080803573ffffffffffffffffffffffffffffffffffffffff16906020019092919080359060200190929190505050611481565b604051808215151515815260200191505060405180910390f35b3480156107e857600080fd5b5061084b600480360360408110156107ff57600080fd5b81019080803573ffffffffffffffffffffffffffffffffffffffff169060200190929190803573ffffffffffffffffffffffffffffffffffffffff1690602001909291905050506115c7565b6040518082815260200191505060405180910390f35b34801561086d57600080fd5b506108a46004803603604081101561088457600080fd5b81019080803590602001909291908035906020019092919050505061164e565b6040518082815260200191505060405180910390f35b3480156108c657600080fd5b50610909600480360360208110156108dd57600080fd5b81019080803573ffffffffffffffffffffffffffffffffffffffff169060200190929190505050611668565b005b60038054600181600116156101000203166002900480601f0160208091040260200160405190810160405280929190818152602001828054600181600116156101000203166002900480156109a15780601f10610976576101008083540402835291602001916109a1565b820191906000526020600020905b81548152906001019060200180831161098457829003601f168201915b505050505081565b600081600760003373ffffffffffffffffffffffffffffffffffffffff1673ffffffffffffffffffffffffffffffffffffffff16815260200190815260200160002060008573ffffffffffffffffffffffffffffffffffffffff1673ffffffffffffffffffffffffffffffffffffffff168152602001908152602001600020819055508273ffffffffffffffffffffffffffffffffffffffff163373ffffffffffffffffffffffffffffffffffffffff167f8c5be1e5ebec7d5bd14f71427d1e84f3dd0314c0f7b2291e5b200ac8c7c3b925846040518082815260200191505060405180910390a36001905092915050565b6000600660008073ffffffffffffffffffffffffffffffffffffffff1673ffffffffffffffffffffffffffffffffffffffff1681526020019081526020016000205460055403905090565b6000610b31600660008673ffffffffffffffffffffffffffffffffffffffff1673ffffffffffffffffffffffffffffffffffffffff1681526020019081526020016000205483611038565b600660008673ffffffffffffffffffffffffffffffffffffffff1673ffffffffffffffffffffffffffffffffffffffff16815260200190815260200160002081905550610bfa600760008673ffffffffffffffffffffffffffffffffffffffff1673ffffffffffffffffffffffffffffffffffffffff16815260200190815260200160002060003373ffffffffffffffffffffffffffffffffffffffff1673ffffffffffffffffffffffffffffffffffffffff1681526020019081526020016000205483611038565b600760008673ffffffffffffffffffffffffffffffffffffffff1673ffffffffffffffffffffffffffffffffffffffff16815260200190815260200160002060003373ffffffffffffffffffffffffffffffffffffffff1673ffffffffffffffffffffffffffffffffffffffff16815260200190815260200160002081905550610cc3600660008573ffffffffffffffffffffffffffffffffffffffff1673ffffffffffffffffffffffffffffffffffffffff168152602001908152602001600020548361164e565b600660008573ffffffffffffffffffffffffffffffffffffffff1673ffffffffffffffffffffffffffffffffffffffff168152602001908152602001600020819055508273ffffffffffffffffffffffffffffffffffffffff168473ffffffffffffffffffffffffffffffffffffffff167fddf252ad1be2c89b69c2b068fc378daa952ba7f163c4a11628f55a4df523b3ef846040518082815260200191505060405180910390a3600190509392505050565b600460009054906101000a900460ff1681565b60055481565b6000600660008373ffffffffffffffffffffffffffffffffffffffff1673ffffffffffffffffffffffffffffffffffffffff168152602001908152602001600020549050919050565b600160009054906101000a900473ffffffffffffffffffffffffffffffffffffffff1673ffffffffffffffffffffffffffffffffffffffff163373ffffffffffffffffffffffffffffffffffffffff1614610e3257600080fd5b600160009054906101000a900473ffffffffffffffffffffffffffffffffffffffff1673ffffffffffffffffffffffffffffffffffffffff166000809054906101000a900473ffffffffffffffffffffffffffffffffffffffff1673ffffffffffffffffffffffffffffffffffffffff167f8be0079c531659141344cd1fd0a4f28419497f9722a3daafe3b4186f6b6457e060405160405180910390a3600160009054906101000a900473ffffffffffffffffffffffffffffffffffffffff166000806101000a81548173ffffffffffffffffffffffffffffffffffffffff021916908373ffffffffffffffffffffffffffffffffffffffff1602179055506000600160006101000a81548173ffffffffffffffffffffffffffffffffffffffff021916908373ffffffffffffffffffffffffffffffffffffffff160217905550565b6000809054906101000a900473ffffffffffffffffffffffffffffffffffffffff1681565b60028054600181600116156101000203166002900480601f0160208091040260200160405190810160405280929190818152602001828054600181600116156101000203166002900480156110305780601f1061100557610100808354040283529160200191611030565b820191906000526020600020905b81548152906001019060200180831161101357829003601f168201915b505050505081565b60008282111561104757600080fd5b818303905092915050565b600061109d600660003373ffffffffffffffffffffffffffffffffffffffff1673ffffffffffffffffffffffffffffffffffffffff1681526020019081526020016000205483611038565b600660003373ffffffffffffffffffffffffffffffffffffffff1673ffffffffffffffffffffffffffffffffffffffff16815260200190815260200160002081905550611129600660008573ffffffffffffffffffffffffffffffffffffffff1673ffffffffffffffffffffffffffffffffffffffff168152602001908152602001600020548361164e565b600660008573ffffffffffffffffffffffffffffffffffffffff1673ffffffffffffffffffffffffffffffffffffffff168152602001908152602001600020819055508273ffffffffffffffffffffffffffffffffffffffff163373ffffffffffffffffffffffffffffffffffffffff167fddf252ad1be2c89b69c2b068fc378daa952ba7f163c4a11628f55a4df523b3ef846040518082815260200191505060405180910390a36001905092915050565b60008082116111e957600080fd5b8183816111f257fe5b04905092915050565b600082600760003373ffffffffffffffffffffffffffffffffffffffff1673ffffffffffffffffffffffffffffffffffffffff16815260200190815260200160002060008673ffffffffffffffffffffffffffffffffffffffff1673ffffffffffffffffffffffffffffffffffffffff168152602001908152602001600020819055508373ffffffffffffffffffffffffffffffffffffffff163373ffffffffffffffffffffffffffffffffffffffff167f8c5be1e5ebec7d5bd14f71427d1e84f3dd0314c0f7b2291e5b200ac8c7c3b925856040518082815260200191505060405180910390a38373ffffffffffffffffffffffffffffffffffffffff16638f4ffcb1338530866040518563ffffffff1660e01b8152600401808573ffffffffffffffffffffffffffffffffffffffff1673ffffffffffffffffffffffffffffffffffffffff1681526020018481526020018373ffffffffffffffffffffffffffffffffffffffff1673ffffffffffffffffffffffffffffffffffffffff16815260200180602001828103825283818151815260200191508051906020019080838360005b838110156113bc5780820151818401526020810190506113a1565b50505050905090810190601f1680156113e95780820380516001836020036101000a031916815260200191505b5095505050505050600060405180830381600087803b15801561140b57600080fd5b505af115801561141f573d6000803e3d6000fd5b50505050600190509392505050565b60008183029050600083148061144c57508183828161144957fe5b04145b61145557600080fd5b92915050565b600160009054906101000a900473ffffffffffffffffffffffffffffffffffffffff1681565b60008060009054906101000a900473ffffffffffffffffffffffffffffffffffffffff1673ffffffffffffffffffffffffffffffffffffffff163373ffffffffffffffffffffffffffffffffffffffff16146114dc57600080fd5b8273ffffffffffffffffffffffffffffffffffffffff1663a9059cbb6000809054906101000a900473ffffffffffffffffffffffffffffffffffffffff16846040518363ffffffff1660e01b8152600401808373ffffffffffffffffffffffffffffffffffffffff1673ffffffffffffffffffffffffffffffffffffffff16815260200182815260200192505050602060405180830381600087803b15801561158457600080fd5b505af1158015611598573d6000803e3d6000fd5b505050506040513d60208110156115ae57600080fd5b8101908080519060200190929190505050905092915050565b6000600760008473ffffffffffffffffffffffffffffffffffffffff1673ffffffffffffffffffffffffffffffffffffffff16815260200190815260200160002060008373ffffffffffffffffffffffffffffffffffffffff1673ffffffffffffffffffffffffffffffffffffffff16815260200190815260200160002054905092915050565b600081830190508281101561166257600080fd5b92915050565b6000809054906101000a900473ffffffffffffffffffffffffffffffffffffffff1673ffffffffffffffffffffffffffffffffffffffff163373ffffffffffffffffffffffffffffffffffffffff16146116c157600080fd5b80600160006101000a81548173ffffffffffffffffffffffffffffffffffffffff021916908373ffffffffffffffffffffffffffffffffffffffff1602179055505056fea165627a7a72305820702a2b758493b9b306c7b880cbb22efc07b5b6bbcccd6874967477ec4ea83ffa0029",
  "source": "pragma solidity ^0.5.0;\n\n// ----------------------------------------------------------------------------\n// 'BJCTK' token contract\n//\n// Deployed to : 0xD5EB1f0dcDF30Eb4eB76C6BdB52194F3De539101 (Rospten network)\n// Symbol      : BJCTK\n// Name        : BJCToken\n// Total supply: 100000000\n// Decimals    : 0 decimals\n// ----------------------------------------------------------------------------\n\n\n// ----------------------------------------------------------------------------\n// Safe maths\n// ----------------------------------------------------------------------------\ncontract SafeMath {\n    function safeAdd(uint a, uint b) public pure returns (uint c) {\n        c = a + b;\n        require(c >= a);\n    }\n    function safeSub(uint a, uint b) public pure returns (uint c) {\n        require(b <= a);\n        c = a - b;\n    }\n    function safeMul(uint a, uint b) public pure returns (uint c) {\n        c = a * b;\n        require(a == 0 || c / a == b);\n    }\n    function safeDiv(uint a, uint b) public pure returns (uint c) {\n        require(b > 0);\n        c = a / b;\n    }\n}\n\n\n// ----------------------------------------------------------------------------\n// ERC Token Standard #20 Interface\n// https://github.com/ethereum/EIPs/blob/master/EIPS/eip-20-token-standard.md\n// ----------------------------------------------------------------------------\ncontract ERC20Interface {\n    function totalSupply() public view returns (uint);\n    function balanceOf(address tokenOwner) public view returns (uint );\n    function allowance(address tokenOwner, address spender) public view returns (uint remaining);\n    function transfer(address to, uint tokens) public payable returns (bool success);\n    function approve(address spender, uint tokens) public returns (bool success);\n    function transferFrom(address from, address to, uint tokens) public payable returns (bool success);\n\n    event Transfer(address indexed from, address indexed to, uint tokens);\n    event Approval(address indexed tokenOwner, address indexed spender, uint tokens);\n}\n\n\n// ----------------------------------------------------------------------------\n// Contract function to receive approval and execute function in one call\n//\n// Borrowed from MiniMeToken\n// ----------------------------------------------------------------------------\ncontract ApproveAndCallFallBack {\n    function receiveApproval(address from, uint256 tokens, address token, bytes memory data) public;\n}\n\n\n// ----------------------------------------------------------------------------\n// Owned contract\n// ----------------------------------------------------------------------------\ncontract Owned {\n    address public owner;\n    address public newOwner;\n\n    event OwnershipTransferred(address indexed _from, address indexed _to);\n\n    constructor() public {\n        owner = msg.sender;\n    }\n\n    modifier onlyOwner {\n        require(msg.sender == owner);\n        _;\n    }\n\n    function transferOwnership(address _newOwner) public onlyOwner {\n        newOwner = _newOwner;\n    }\n    function acceptOwnership() public {\n        require(msg.sender == newOwner);\n        emit OwnershipTransferred(owner, newOwner);\n        owner = newOwner;\n        newOwner = address(0);\n    }\n}\n\n\n// ----------------------------------------------------------------------------\n// ERC20 Token, with the addition of symbol, name and decimals and assisted\n// token transfers\n// ----------------------------------------------------------------------------\ncontract BJCToken is ERC20Interface, Owned, SafeMath {\n    string public symbol;\n    string public  name;\n    uint8 public decimals;\n    uint public _totalSupply;\n\n    mapping(address => uint) balances;\n    mapping(address => mapping(address => uint)) allowed;\n\n\n    // ------------------------------------------------------------------------\n    // Constructor\n    // ------------------------------------------------------------------------\n    constructor() public payable {\n        symbol = \"BJCTK\";\n        name = \"BJCToken\";\n        decimals = 0;\n        _totalSupply = 1000000;\n        balances[msg.sender] = _totalSupply; \n        emit Transfer(address(0), msg.sender, _totalSupply);\n    }\n    \n\n\n    // ------------------------------------------------------------------------\n    // Total supply\n    // ------------------------------------------------------------------------\n    function totalSupply() public view returns (uint) {\n        return _totalSupply  - balances[address(0)];\n    }\n\n\n    // ------------------------------------------------------------------------\n    // Get the token balance for account tokenOwner\n    // ------------------------------------------------------------------------\n    function balanceOf(address tokenOwner) public view returns (uint balance) {\n        return balances[tokenOwner];\n    }\n\n\n    // ------------------------------------------------------------------------\n    // Transfer the balance from token owner's account to to account\n    // - Owner's account must have sufficient balance to transfer\n    // - 0 value transfers are allowed\n    // ------------------------------------------------------------------------\n    function transfer(address to, uint tokens) public payable returns (bool success) {\n        balances[msg.sender] = safeSub(balances[msg.sender], tokens);\n        balances[to] = safeAdd(balances[to], tokens);\n        emit Transfer(msg.sender, to, tokens);\n        return true;\n    }\n\n\n    // ------------------------------------------------------------------------\n    // Token owner can approve for spender to transferFrom(...) tokens\n    // from the token owner's account\n    //\n    // https://github.com/ethereum/EIPs/blob/master/EIPS/eip-20-token-standard.md\n    // recommends that there are no checks for the approval double-spend attack\n    // as this should be implemented in user interfaces \n    // ------------------------------------------------------------------------\n    function approve(address spender, uint tokens) public returns (bool success) {\n        allowed[msg.sender][spender] = tokens;\n        emit Approval(msg.sender, spender, tokens);\n        return true;\n    }\n\n\n    // ------------------------------------------------------------------------\n    // Transfer tokens from the from account to the to account\n    // \n    // The calling account must already have sufficient tokens approve(...)-d\n    // for spending from the from account and\n    // - From account must have sufficient balance to transfer\n    // - Spender must have sufficient allowance to transfer\n    // - 0 value transfers are allowed\n    // ------------------------------------------------------------------------\n    function transferFrom(address from, address to, uint tokens) public payable returns (bool success) {\n        balances[from] = safeSub(balances[from], tokens);\n        allowed[from][msg.sender] = safeSub(allowed[from][msg.sender], tokens);\n        balances[to] = safeAdd(balances[to], tokens);\n        emit Transfer(from, to, tokens);\n        return true;\n    }\n\n\n    // ------------------------------------------------------------------------\n    // Returns the amount of tokens approved by the owner that can be\n    // transferred to the spender's account\n    // ------------------------------------------------------------------------\n    function allowance(address tokenOwner, address spender) public view returns (uint remaining) {\n        return allowed[tokenOwner][spender];\n    }\n\n\n    // ------------------------------------------------------------------------\n    // Token owner can approve for spender to transferFrom(...) tokens\n    // from the token owner's account. The spender contract function\n    // receiveApproval(...) is then executed\n    // ------------------------------------------------------------------------\n    function approveAndCall(address spender, uint tokens, bytes memory data) public returns (bool success) {\n        allowed[msg.sender][spender] = tokens;\n        emit Approval(msg.sender, spender, tokens);\n        ApproveAndCallFallBack(spender).receiveApproval(msg.sender, tokens, address(this), data);\n        return true;\n    }\n\n\n    // ------------------------------------------------------------------------\n    // Don't accept ETH\n    // ------------------------------------------------------------------------\n    function () external payable {\n        revert();\n    }\n\n\n    // ------------------------------------------------------------------------\n    // Owner can transfer out any accidentally sent ERC20 tokens\n    // ------------------------------------------------------------------------\n    function transferAnyERC20Token(address tokenAddress, uint tokens) public onlyOwner returns (bool success) {\n        return ERC20Interface(tokenAddress).transfer(owner, tokens);\n    }\n}\n",
  "sourcePath": "/Users/juliozohar/Development/dapp/ERC21/contracts/BJCToken.sol",
  "compiler": {
    "name": "solc",
    "version": "0.5.8+commit.23d335f2.Emscripten.clang"
  },
  "schemaVersion": "3.0.11",
  "updatedAt": "2019-11-16T04:04:02.930Z",
  "devdoc": {
    "methods": {}
  },
  "userdoc": {
    "methods": {}
  }
}